:020000040800F2
:1000000088070020350200083B1E0008D31C0008AA
:10001000391E000823060008FB2600080000000027
:10002000000000000000000000000000E91F0008C0
:1000300025060008000000003D1E0008EB1F000818
:100040004F0200084F0200084F0200084F0200084C
:100050004F0200084F0200084F0200084F0200083C
:100060004F0200084F0200084F0200084F0200082C
:100070004F0200084F0200084F0200084F0200081C
:100080004F0200084F0200084F0200084F0200080C
:100090004F0200084F0200084F0200084F020008FC
:1000A0004F0200084F0200084F0200088D20000890
:1000B0004F02000800000000000000004F0200088E
:1000C0004F02000800000000000000004F0200087E
:1000D000000000004F0200084F020008000000006E
:1000E0004F0200084F02000800000000000000005E
:1000F0000000000000000000000000000000000000
:100100000000000000000000000000004F02000896
:1001100000000000000000004F0200084F0200082D
:100120004F0200084F0200084F0200084F0200086B
:100130004F02000800000000000000000000000066
:100140004F0200084F0200084F0200084F0200084B
:100150004F0200084F0200084F0200084F0200083B
:100160004F0200084F0200084F0200080000000084
:100170004F0200084F0200080000000000000000CD
:100180004F0200084F0200084F02000800F002F87A
:1001900000F041F80AA090E8000C82448344AAF1E0
:1001A0000107DA4501D100F036F8AFF2090EBAE8DE
:1001B0000F0013F0010F18BFFB1A43F0010318479B
:1001C000E027000000280000103A24BF78C878C15A
:1001D000FAD8520724BF30C830C144BF04680C604D
:1001E000704700000023002400250026103A28BF95
:1001F00078C1FBD8520728BF30C148BF0B60704799
:10020000642900F0F780002070471FB502F09EFBC4
:100210001FBD10B510BD00F0CAF91146FFF7F5FF7C
:1002200002F07CFA00F0E8F903B4FFF7F2FF03BC38
:1002300000F0F0F90948804709480047FEE7FEE76B
:10024000FEE7FEE7FEE7FEE7FEE7FEE7FEE7FEE786
:1002500004480549054A064B704700007D20000808
:100260008D010008880100208807002088030020F5
:100270008803002053EA020C00F069802DE9F04B5E
:100280004FF00006002B1FBFB3FA83F503FA05F405
:1002900024FA05F65E4012BF1643B2FA82F502FA5E
:1002A00005F4C5F120051EBF22FA05FC44EA0C0442
:1002B000203556EA044C4FEA144418BF641C4FF032
:1002C00000084FF00009904271EB030C39D300296C
:1002D00019BFB1FA81F701FA07F6B0FA80F700FA10
:1002E00007F6C7F120071EBF20FA07FC46EA0C06F6
:1002F0002037B6FBF4FCA7EB0507103F07F01F0BF8
:10030000CBF120060CFA0BFB2CFA06F644BFB346E1
:100310000026202FA4BF5E464FF0000B5BEA060CC0
:1003200008BF4FF0010B19EB0B09ABFB027C48EB4C
:100330000608C01B06FB02CC0BFB03CC71EB0C01C7
:10034000C1E70B46024641464846BDE8F08B13B56F
:100350004FF000004FF00001AFF30080BDE81C40FB
:10036000704700000FB41CB5074B06AA7B446946D2
:100370000090059800F003F90020694600F012F99A
:100380001CBC5DF814FB0000350200002DE9F041B3
:100390000E460446002020622046E168884730B3BC
:1003A000252805D0D4E901219047206A401CF2E7B6
:1003B000E168204600278847050018D0A5F14100D4
:1003C000192802D820354FF40067324629462046C6
:1003D0002760FFF715FF40B1012804D0F61D26F075
:1003E00007060836D8E7361DD6E72846DAE7206A3A
:1003F000BDE8F0812DE9F04106460024106875291A
:10040000314616A510D0AFF30080002802DA404232
:1004100013A507E031688A0701D512A502E0490754
:1004200004D511A5012401E0AFF3008000210A22C8
:1004300006F1240709E0B0FBF2FCB0FBF2F302FB8B
:100440001C00303078541846491C0028F3D123464C
:100450002A463046BDE8F04100F032B80000000006
:100460002D0000002B000000200000004FF00002D3
:1004700000B5134694469646203922BFA0E80C509A
:10048000A0E80C50B1F12001BFF4F7AF090728BF75
:10049000A0E80C5048BF0CC05DF804EB890028BFF1
:1004A00040F8042B08BF704748BF20F8022B11F01A
:1004B000804F18BF00F8012B704770477047704796
:1004C0002DE9F0470D4699469246044600F124086E
:1004D0000168880604D5E06921F01001216000E080
:1004E0000120A84201DD471B00E00027A1697A191D
:1004F00002EB0900081AA0612078C00602D4204649
:10050000AFF30080002608E0D4E901211AF80600C4
:100510009047206A401C761C20624E45F4DB207810
:10052000C0060AD52046AFF3008006E0D4E90121D9
:1005300030209047206A401C2062381EA7F1010736
:10054000F4DC07E0D4E9012118F805009047206A9F
:10055000401C2062281EA5F10105F3DC2046AFF304
:1005600000802078000602D50220BDE8F087012037
:10057000FBE7000001694A1C02610878704700B57A
:100580008FB0CDE901310021059105497944CDE9CC
:10059000031011466846FFF7F9FE0FB000BD0000DA
:1005A000E5FFFFFF0A6802F8010B0A607047754615
:1005B00000F02CF8AE4605006946534620F00700CF
:1005C000854618B020B5FFF743FEBDE820404FF048
:1005D00000064FF000074FF000084FF0000B21F02D
:1005E0000701AC46ACE8C009ACE8C009ACE8C009FA
:1005F000ACE8C0098D46704710B50446AFF30080E3
:100600002046BDE81040FFF70FBE000000487047CD
:100610002401002001491820ABBEFEE7260002009D
:100620007047FEE7704772B6FEE7000070B50446FB
:1006300000F014F90546601C02D004480078044418
:1006400000F00CF9401BA042FAD370BD100000204E
:100650002DE9F04FDFF8E091002301270326A9F1EF
:10066000040B85B00F2509F1040AABF1040EDBE0A1
:1006700007FA03FC12EA0C027ED00C7904F00304A2
:10068000012C01D0022C20D1846800945C0006FA71
:1006900004F80494009C24EA08040094D1F80C8027
:1006A000049C08FA04F8009C48EA0408C0F8088092
:1006B000446824EA0C0491F804C0CCF3001C0CFA42
:1006C00003FC4CEA040CC0F804C00C79E443A40712
:1006D0000DD0D0F80CC04FEA430806FA08F42CEA13
:1006E000040C8C6804FA08F444EA0C04C4600C7925
:1006F00004F00304022C19D1DC0800EB84040294FA
:10070000246A4FEA437C4FEADC6CCDF810C005FA4E
:100710000CFC24EA0C04D1F81080DDF810C008FAB3
:100720000CF848EA0408029CC4F8208004684FEAE8
:10073000430806FA08FC24EA0C0491F804C00CF003
:10074000030C0CFA08FC4CEA040CC0F800C04C681E
:1007500014F4403F67D0394CD4F860C04CF0010C21
:10076000C4F860C0246E23F0030C04F0010400946C
:10077000334C6444029400E055E0A4684FEA837C63
:100780004FEA1C7805FA08FC24EA0C04B0F1904FFB
:1007900006D0DFF8B0C0604505D14FF0010C0BE08A
:1007A0004FF0000C08E0DFF8A0C0604502D14FF028
:1007B000020C01E04FF0070C0CFA08FC4CEA040CA8
:1007C000029CC4F808C0D9F80040CC46D1F8048097
:1007D00094435FEAC82800D51443CCF80040DAF807
:1007E0000040D446D1F8048094435FEA882800D5BD
:1007F0001443CCF80040DBF80040DC46D1F804801C
:1008000094435FEA883800D51443CCF80040DEF802
:100810000040F446D1F8048094435FEAC83800D51C
:100820001443CCF800405B1C0C682246DC407FF48B
:100830001FAF05B000F00AB80804014000100240E4
:1008400000000140000400480008004830BCBDE83A
:10085000C08F0AB18161704781627047014880682A
:10086000704700001000002002488168027811449F
:10087000816070471000002010B50024032000F0B4
:1008800071F8002000F008F808B1012401E000F040
:1008900025F8204610BD000070B50E4E0546002418
:1008A000307898B14FF47A71B1FBF0F00A490968D9
:1008B000B1FBF0F000F0C2FD40B9102D06D20022CD
:1008C0002946501E00F02EF8756000E001242046F5
:1008D00070BD0000100000201C000020094808B571
:1008E000016E41F001010166016E01F0010100910C
:1008F000816D41F080518165806D00F080500090E5
:1009000008BD000000100240002809DB00F01F02B3
:10091000012191404009800000F1E020C0F8001161
:1009200070470000F0B40E4B1B680C46C3F3022363
:10093000C3F10705042D00D90425191D072901D28B
:10094000002300E0DB1E012606FA05F1491E2140C6
:1009500099409E40761E16403143F0BC01F0CEBE59
:100960000CED00E0064900F0070208684FF6FF03AF
:10097000184040EA0220034A104308607047000014
:100980000CED00E00000FA051649B0F5007F08689C
:10099000C0F3412009D0022805D0086820F4C060C7
:1009A00040F480600860002070470128FBD0086890
:1009B00020F4C06040F4007008600B4832220068E8
:1009C00050430A4AB0FBF2F0401C00E0401E4A6966
:1009D000520501D50028F9D148694005E3D5032027
:1009E00070470000007000401C00002040420F00D3
:1009F0000248006800F4C0607047000000700040CA
:100A00000248016841F48071016070470070004045
:100A10000248016841F00401016070470010024083
:100A20002DE9F84F0446002700889C4D3E460005FE
:100A300015D5E06B60B1B0F5000F04D0B0F5400FF4
:100A40002BD001270AE0E86840F48030E86024E019
:100A50000021201D01F0F4F907001ED03E46206859
:100A6000800338D5A86D4FF00008C00009D4A86DE8
:100A700040F08050A865A86D4FF0010800F080504C
:100A80000090DFF81CA2DAF8001041F48071CAF877
:100A90000010FFF7E3FE814610E0D5F88800E16B17
:100AA00020F440000843C5F88800D8E7FFF7D6FED9
:100AB000A0EB0900022801D9032704E0DAF80000BE
:100AC000C005F3D5EFB33E46B8F1000F03D0A86DD3
:100AD00020F08050A8652078C00707D0D5F888009E
:100AE000216A20F003000843C5F8880020788007B9
:100AF00007D5D5F88800616A20F00C000843C5F8D6
:100B000088002078800607D5D5F88800A16A20F4EF
:100B100040600843C5F888002088800507D5D5F8CF
:100B20008800616B20F440200843C5F888002088C5
:100B3000400509D5D5F88800A16B20F44010084382
:100B400000E02EE0C5F888002078400607D5D5F8EB
:100B50008800E16A20F440500843C5F888002088E6
:100B6000C00507D5D5F88800216B20F44030084334
:100B7000C5F8880020884FF0006780044FF0806837
:100B80004ED5D5F88800216C20F040600843C5F8A8
:100B90008800206CB8423BD1E86840F48010E860DF
:100BA0003EE0D5F8900010F4407014D0216D8142E1
:100BB00011D0D5F89000D5F8901020F4407041F491
:100BC0008031C5F89010D5F8901021F48031C5F827
:100BD0009010C5F89000C00711D0FFF73FFE074600
:100BE00041F2883907E000BFFFF738FEC11B4945D5
:100BF00001D9032668E7D5F890008007F4D5D5F829
:100C00009000216D20F440700843C5F890005BE728
:100C1000404505D10121201D01F012F900B1064621
:100C20002068400317D5D5F88800616C20F040603B
:100C30000843C5F88800606CB84204D1E86840F405
:100C40008010E86007E0404505D10121201D01F03A
:100C5000F7F800B106462088400411D5D5F8880081
:100C6000A16C20F040500843C5F88800A06CB0F19A
:100C7000805F05D10221201D01F0E2F800B1064697
:100C80002088000406D555F8880FE16C20F08040DC
:100C900008432860304600F005B80000001002400C
:100CA0000070004018BCBDE8E08F00002DE9F0475F
:100CB0000F4605006BD0494E306800F00700B8427F
:100CC00009D2306820F0070038433060306800F007
:100CD0000700B8425BD12878414C80070AD5A86844
:100CE000A16801F0F001884204D9A16821F0F00167
:100CF0000143A1602878C0072CD06868032811D070
:100D0000022812D0216898B1490500293FDAA1686C
:100D100021F003010143A160FFF7A0FD804641F2ED
:100D2000883910E021688901EFE721688903ECE741
:100D30008907EAE7FFF792FDA0EB0801494502D9D0
:100D40000320BDE8F087A068696800F00C00B0EBF4
:100D5000810FEFD1287880070AD5A868A16801F033
:100D6000F001884204D2A16821F0F0010143A160A2
:100D7000306800F00700B8420BD9306820F0070057
:100D800038433060306800F00700B84201D00120DD
:100D9000D7E72878400705D5A068E96820F4E06027
:100DA0000843A0602878000706D5A068296920F4C8
:100DB000605040EAC100A06000F03EF8A168094A16
:100DC000C1F30311515C01F01F01C84006490860DE
:100DD00006480068BDE8F047FFF75EBD002002400E
:100DE00000100240582900081C00002014000020B8
:100DF0000548064900688968054AC1F30221515C2B
:100E000001F01F01C84070471C0000200010024084
:100E1000982900080548064900688968054AC1F311
:100E2000C221515C01F01F01C84070471C00002026
:100E3000001002409829000870B525490023184683
:100E40008A68CC6812F00C0204F00306214C4FEAC9
:100E5000640509D00C2A05D0042A32D0082A00D112
:100E6000284670BD012E10D10B681B0704D4D1F8A1
:100E70009430C3F3032302E00B68C3F30313164E4D
:100E800056F82330DAB10C2AEBD1C86800F0030021
:100E9000022818D0032818D01846CA68CB68C2F3B5
:100EA0000212C3F306234343521CB3FBF2F2C86899
:100EB000C0F34160401C4000B2FBF0F070BD18462A
:100EC00070BD204670BD2046E7E72846E5E70000F4
:100ED000001002400024F400682900082DE9F843BE
:100EE00004006FD0FA4DA86800F00C06E86800F026
:100EF00003072078C00664D576B10C2E01D1012FEE
:100F00000AD0A069002828687AD040F00100286043
:100F1000FFF7A4FC80465DE02868800702D5A06941
:100F20000028DED0216A2868000703D5286800F071
:100F3000F00004E0D5F89400F02202EA101081429B
:100F400016D9084601F012F800283BD1286840F075
:100F5000080028602868216A20F0F0000843286013
:100F60006868E16920F47F4040EA0120686016E08B
:100F7000286840F0080028602868216A20F0F00006
:100F8000084328606868E16920F47F4040EA012056
:100F9000686026B9206A00F0E9FF0028D5D1FFF784
:100FA0004BFFA968CB4AC1F30311515C01F01F014B
:100FB000C840C9490860C9480068FFF76DFC0028AF
:100FC0007ED12EE0CAE000BFFFF748FCA0EB08008E
:100FD000022876D828688007F6D5286840F00800EF
:100FE00028602868216A20F0F000084328606868BB
:100FF000E16920F47F4040EA0120686011E0FFE7EA
:1010000020F001002860FFF729FC804606E000BFC1
:10101000FFF724FCA0EB08000228DAD82868800734
:10102000F6D42078C00740D0082E18D00C2E01D15D
:10103000032F14D06068B0F5803F17D0B0F5A02F13
:10104000286817D020F480302860286820F4802099
:1010500028606068E0B1FFF701FC804614E0286872
:10106000800322D56068002878D01EE0286840F40C
:101070008030EDE740F480202860F7E7FFF7EEFBD3
:10108000A0EB08006428A4D828688003F6D50CE0FB
:10109000FFF7E4FB804605E0FFF7E0FBA0EB08006C
:1010A000642896D828688003F6D4207880073BD53A
:1010B000042E11D00C2E01D1022F0DD0E06801E0DA
:1010C000AAE1FFE0002828681ED040F48070286064
:1010D000FFF7C4FB07460CE0286840050CD5E06824
:1010E0000028C1D008E000BFFFF7B8FBC01B0228F2
:1010F00093D828684005F7D56868217C20F0F8501F
:1011000040EA016068600FE020F480702860FFF71B
:10111000A5FB074605E000BFFFF7A0FBC01B0228A8
:10112000B1D828684005F7D42078000729D5606930
:101130000028D5F8940012D040F00100C5F89400C2
:10114000FFF78CFB074604E0FFF788FBC01B022873
:1011500099D8D5F894008007F6D512E02BE120F05D
:101160000100C5F89400FFF779FB074605E000BFD2
:10117000FFF774FBC01B022885D8D5F894008007C0
:10118000F6D42078400766D5A86D0027C00008D4A3
:10119000A86D40F08050A865A86D012700F0805030
:1011A00000904F480168C90512D40168814641F496
:1011B00080710160FFF752FB804605E0FFF74EFBB0
:1011C000A0EB080002287DD8D9F80000C005F5D5AD
:1011D000A068012816D00528D5F8900017D020F077
:1011E0000100C5F89000D5F8900020F0040000BF81
:1011F000C5F89000A06841F28839C0B1FFF72EFB16
:1012000080460FE0D5F8900040F00100F0E740F094
:101210000400C5F89000F5E7FFF720FBA0EB0801FC
:1012200049454FD8D5F890008007F5D50EE0FFF777
:1012300015FB804606E000BFFFF710FBA0EB08019E
:1012400049453FD8D5F890008007F5D41FB1A86D67
:1012500020F08050A8652078800628D5606A002894
:10126000D5F8980012D040F00100C5F89800FFF7BB
:10127000F5FA074605E000BFFFF7F0FAC01B0228A9
:1012800020D8D5F898008007F6D510E020F00100AE
:10129000C5F89800FFF7E2FA074604E0FFF7DEFA28
:1012A000C01B02280ED8D5F898008007F6D4A06A93
:1012B000F0B3022816D00C2E7DD0286820F0807064
:1012C000286000E0A7E0FFF7C9FA0446A6E00000A6
:1012D00000100240582900081C00002014000020C3
:1012E00000700040E868E26A00F00301914228D1F2
:1012F000216B00F0700209011039914221D1626B1B
:1013000000F4FE41B1EB022F1BD194F8382000F01D
:101310007841B1EBC26F14D1A18F00F4C00249082B
:101320004905A1F5001191420BD194F8401000E05D
:101330006AE04908490600F0C060A1F100718142ED
:101340004BD00C2E73D02868400170D4286820F050
:1013500080702860FFF782FA064604E0FFF77EFA05
:10136000801B022857D828688001F7D4F4E90B01C4
:101370006FF00F0202EB01110843218A5204490861
:1013800002EB4151A26841EA02210843217D4FF05E
:101390007E42490802EB41610843217B40EAC1607B
:1013A000E968244A11400843E860286840F08070EA
:1013B0002860E86800E03AE040F08070E860FFF7FD
:1013C0004DFA044605E000BFFFF748FA001B02286B
:1013D00021D828688001F7D527E02868800124D427
:1013E000286840F080702860E86840F08070E8600D
:1013F000FFF734FA044604E0FFF730FA001B022836
:1014000009D828688001F7D50FE000BFFFF726FA5A
:10141000001B022802D90320BDE8F8832868800158
:10142000F4D4E86804490840E8600020F4E70120AB
:10143000F2E700008C809D01FCFFEEFE10B5401E1F
:10144000B0F1807F01D3012010BD4FF0E024606136
:101450000F21601701F052F90020A06107202061E0
:10146000002010BD7047704770470000F0B590F83D
:101470003C20012A29D0012480F83C40022280F837
:101480003D2003685A689D68114EB34203D122F48F
:1014900070074A683A4322F070070A683A435A6074
:1014A0000268B24205D0B2F1804F02D0094B9A4295
:1014B00004D1896825F080031943916080F83D408C
:1014C000002180F83C100846F0BD0220F0BD00006D
:1014D000002C01400040014010B5040003D094F8F6
:1014E0003D0010B107E0012010BD002084F83C0051
:1014F000204600F023F8022084F83D00211D2068DA
:1015000000F05CFE012084F8480084F83E0084F876
:101510003F0084F8400084F8410084F8420084F8D9
:10152000430084F8440084F8450084F8460084F8B9
:10153000470084F83D00002010BD000010B586B0C3
:10154000044614216846FEF791FF17492068884237
:1015500027D11648016E41F400610166016E01F465
:1015600000610591C16C41F00101C164C06C694624
:1015700000F0010005904FF480700090022001906F
:10158000002002900390012004904FF09040FFF75C
:101590005FF8002211461B20FFF7C4F91B20FFF75C
:1015A000B3F906B010BD0000002C0140001002404D
:1015B00090F83D10012901D001207047022180F8E8
:1015C0003D1000680B49884205D0B0F1804F02D031
:1015D0000949884207D18168084A1140062906D086
:1015E000B1F5803F03D0016841F0010101600020A6
:1015F00070470000002C014000400140070001003E
:1016000070B5044690F83C000025012817D001264B
:1016100084F83C60022084F83D00226890682F4BDB
:10162000184020F47F4090600868502838D00DDCC6
:1016300020284FD005DC90B3102811D14AE00220B9
:1016400070BD302846D040280AD13BE060282FD01A
:1016500070280DD0B0F5805F03D0B0F5005F12D0D8
:10166000012584F83D60002084F83C00284670BDC8
:10167000CB68D1E90121206800F0E3FD2068816892
:1016800041F0770109E0CB68D1E90121206800F041
:10169000D8FD2068816841F480418160E1E719E06C
:1016A000CA684968206800F0DEFD5021206806E025
:1016B000CA684968206800F00FFE6021206800F0C9
:1016C000CAFDCEE7CA684968206800F0CCFD402119
:1016D0002068F4E7226801461046F0E788FFFEFF25
:1016E00070472DE9F041054690F83C0000260C4675
:1016F000012810D0012085F83C0072B1042A1CD0CA
:10170000082A2CD00C2A50D00126002085F83C0055
:101710003046BDE8F0810220FBE7D4E90012E3681F
:10172000286800F0B1FD2868816921F00C01816111
:1017300028688169A26811430FE0D4E90012E368C8
:10174000286800F0DBFD2868816921F4406181612F
:1017500028688169A26841EA02218161D5E7286889
:10176000D4E9002C277B016A21F480710162C169F0
:10177000036A21F0030141EA0C0121F0F00C390762
:101780004FF420674CEA116123F4206307EA022238
:101790001A43C16102622868C16921F00C01C1616C
:1017A0002868C169A268114328E02868D4E90027A5
:1017B000E168036A23F480530362D0F81CC0036A13
:1017C0002CF4407C4CEA07274FF6FF7C27F4704747
:1017D0000CEA013139434FF4204723F4204307EA50
:1017E00002321A43C16102622868C16921F4406172
:1017F000C1612868C169A26841EA0221C16184E728
:1018000010B5040003D094F83D0010B107E00120AA
:1018100010BD002084F83C00204600F022F8022091
:1018200084F83D00211D206800F0C8FC012084F8E8
:10183000480084F83E0084F83F0084F8400084F8B3
:10184000410084F8420084F8430084F8440084F89E
:10185000450084F8460084F8470084F83D000020E5
:1018600010BD704730B50446002571B1042911D070
:10187000082914D00C2917D0102918D094F8430047
:1018800094F84720012817D114E094F83E0094F80A
:101890004420F7E794F83F0094F84520F2E794F8E5
:1018A000400094F84620EDE794F84100E8E794F80A
:1018B0004200E5E7012A01D0012030BD022079B1C4
:1018C000042916D008291DD00C2940D0102941D058
:1018D00084F8430084F847000C293ED0012534E009
:1018E00084F83E0084F844002068C26842F0020296
:1018F00010E084F83F0084F845002068C26842F098
:10190000040207E084F8400084F846002068C268BA
:1019100042F00802C2600122206800F085FC1149F3
:101920002068884205D0B0F1804F02D00E4988422D
:1019300007D181680D4A1140062906D0B1F5803FD4
:1019400003D0016841F001010160284630BD84F8F0
:101950004100BFE784F84200BCE72068C26842F05B
:101960001002D7E7002C01400040014007000100B1
:1019700070B50446006801694FF00005C943890746
:1019800015D4C168C943890711D4E91E016101203A
:101990002077206880698007204602D0FFF7A0FEEC
:1019A00004E000F0A7F8204600F0A5F825772068AD
:1019B0000169C943490717D4C168C943490713D40A
:1019C0006FF004010161022020772068806910F423
:1019D000407F204602D0FFF783FE04E000F08AF843
:1019E000204600F088F8257720680169C943090777
:1019F00016D4C168C943090712D46FF00801016108
:101A0000042020772068C0698007204602D0FFF7B5
:101A100067FE04E000F06EF8204600F06CF82577D1
:101A200020680169C943C90617D4C168C943C906FA
:101A300013D46FF010010161082020772068C0697D
:101A400010F4407F204602D0FFF74AFE04E000F089
:101A500051F8204600F04FF8257720680169C94306
:101A6000C90708D1C168C943C90704D1891E0161EA
:101A7000204600F041F820680169C943090609D4ED
:101A8000C168C943090605D46FF080010161204691
:101A9000FFF7E9FC20680169C943C90509D4C16899
:101AA000C943090605D46FF4807101612046FFF730
:101AB000D9FC20680169C943490609D4C168C943F2
:101AC000490605D46FF040010161204600F02AF874
:101AD00020680169C94389060BD4C168C9438906D6
:101AE00007D46FF0200101612046BDE87040FFF788
:101AF000BBBC70BD7047704770470246002041B1C3
:101B0000042909D008290AD00C2901D11068006CD9
:101B100070471068406B70471068806B70471068A2
:101B2000C06B7047704710B5040002D0A06F10B1B1
:101B300007E0012010BD002084F87400204600F06A
:101B400025F82420A0672068016821F001010160C8
:101B5000204600F081FC0128ECD0606A10B12046DC
:101B600000F0E7FB2068416821F490414160206863
:101B7000816821F02A0181602068016841F001013B
:101B800001602046BDE8104000F037BCF0B59BB0C6
:101B90000446142115A8FEF769FC54216846FEF797
:101BA00065FC1C492068884232D102240026684620
:101BB00009960094FEF734FF08B1FEF734FD16488D
:101BC000816D41F400318165816D01F400311A911C
:101BD000C16C41F00101C164C06C15A900F00100A5
:101BE0001A90042081E8510003250720CDE9185000
:101BF0004FF090473846FEF72BFDCDE917654FF4BF
:101C000000401995CDE9150415A93846FEF720FDC9
:101C10001BB0F0BD00440040001002402DE9F84325
:101C20000446806F1F4616460D4620284FD1CDB181
:101C3000C6B194F87400012849D0012084F87400DA
:101C40004FF00008C4F880802120A067FEF706FE50
:101C5000A4F850608146A4F85260A068B0F5805F97
:101C600003D004E00120BDE8F883206928B12E46A6
:101C70005FF0000584F8748010E00026FAE7802108
:101C8000204600F0D7FCB8B9C6B116F8010B2168A0
:101C90000885B4F85200401EA4F85200B4F852006F
:101CA0004B464FF0000200970028E8D14FF040016A
:101CB000204600F0BFFC30B10320D4E735F8020B1A
:101CC000C0F30800E3E72020A0670020CBE7022054
:101CD000C9E7FEE7F0B587B014216846FEF7C6FBFA
:101CE0001E48C16C41F00401C164C16C01F00401E3
:101CF0000591C16C41F00101C164C16C01F00101A9
:101D00000591C16C41F00201C164C06C4FF44064A4
:101D100000F002004FF09046059000222146304628
:101D2000FEF797FD0E4F002208213846FEF791FD81
:101D30000125CDE90045002402946946304603940C
:101D4000FEF786FC08200090CDE90154694638462C
:101D50000394FEF77DFC07B0F0BD000000100240C8
:101D60000004004810B58CB000240A94234807945E
:101D700008940994059406940494009401940294A0
:101D80001D49039401601F21C0E901144EF6602132
:101D9000C0E9031444618461FFF79EFB08B172B689
:101DA000FEE74FF48050079007A91448FFF728FC7E
:101DB00008B172B6FEE71148FFF722FD08B172B60E
:101DC000FEE70494059404A90C480694FFF74EFB23
:101DD00008B172B6FEE70120CDE90040029400226E
:101DE000694606480394FFF77CFC002801D072B6D0
:101DF000FEE70CB010BD0000002C014020000020C8
:101E00000C4810B50A4901604FF416514160002199
:101E100081600C22C160C0E904128161C16101626C
:101E20004162FFF780FE002801D072B6FEE710BDC8
:101E3000004400406C000020FEE7FEE77047000011
:101E40002DE9F041444C05468846E06800268107AC
:101E500028680DD0E16801F00301814216D1A8B1D4
:101E6000E0686968C0F30210401C88420ED120E08F
:101E7000012804D0022805D0032807D108E02168F2
:101E8000890701E021684905002907DB01265FE099
:101E90002168890302D421684903F5E7E1686A688B
:101EA0006FF00F0321F0730103EB021211430143A2
:101EB000E160206820F080602060FEF7CFFC0746DC
:101EC00005E000BFFEF7CAFCC01B022837D8206817
:101ED0000001F7D4B8F1000F18D0B8F1010F1DD0F0
:101EE000287D4FF07E41400801EB4060A96840EA40
:101EF00001202169194A114008432061206840F0FF
:101F000080602060FEF7AAFC07461AE0A868297BDB
:101F1000000240EAC1602169114AECE7288A1149B0
:101F2000400801EB4050A96840EA012021690E4AAF
:101F3000E1E700BFFEF792FCC01B022801D903268F
:101F400006E020680001F5D52069A96908432061F1
:101F50003046BDE8F081000000100240FF80FFF92C
:101F6000FF80FF070000E0FFFF809FFFF8B51C4DDA
:101F700006460024A86DC00002D5FEF739FD0DE02D
:101F8000A86D40F08050A865A86D00F080500090CA
:101F9000FEF72EFDA96D21F08051A965B0F5007FF7
:101FA00004D0802E07D94FF003040AE0802E08D910
:101FB000A02E01D804E001D1022402E0702E00D14D
:101FC00001240848016821F00701214301600068ED
:101FD00000F00700A04201D00120F8BD0020F8BDAC
:101FE00000100240002002407047FEF73DBC000098
:101FF00010B596B044216846FEF738FA142111A8AE
:10200000FEF734FA4FF40070FEF7BEFC08B172B66A
:10201000FEE7FEF7F5FC184850F8901F21F0180174
:10202000016014200090012002900024602106909D
:10203000CDE907410221CDE90A100C9010200D9046
:102040000720CDE90E0168461091FEF747FF08B161
:1020500072B6FEE70F2011900320CDE9120414940C
:10206000012111A81594FEF721FE08B172B6FEE712
:10207000FEF7CEFC16B010BD001002400248016809
:1020800041F470010160704788ED00E02DE9F047F0
:10209000394C3A4FDFF8F09001262DED028B0025E8
:1020A0009FED378B206880B1002138462560FFF70F
:1020B00024FDA0603868016A21F00A0101623868D5
:1020C000016A41F0020101624FE000212B48FFF755
:1020D00014FDE06039680A6A22F00A020A6239686F
:1020E0000A6A0A62A168401A3A21B0FBF1F0804600
:1020F00000F054FB8A464AEC100B074653EC182BB1
:1021000051EC100B00F062FB03D8606801280DD081
:1021100066604AEC107B53EC182B51EC100B00F06E
:10212000DFFB1BD86068012812D017E001220821CC
:102130004846FEF78EFB424614A11E48FEF712F9F0
:1021400040F6B83332221B491B48FFF767FDE0E732
:102150000022082148466560FEF77BFB15490020F8
:102160000D54401C3228FBDB26600448BDEC028B7A
:10217000BDE8F047FFF7FCBB000000202000002076
:102180000000000000003440000400482564205492
:10219000484520545241534842494E204953204615
:1021A000554C4C20504C4541534520454D505459B9
:1021B000200A0000F00000206C00002070B50268CA
:1021C000164B4FF08046984201D0B04203D122F026
:1021D00070044A682243124C124D984205D0B04216
:1021E00003D0A04201D0A84203D122F44076CA68AD
:1021F00032434E6922F08002324302608A68C26232
:102200000A688262984203D0A04201D0A84201D15C
:10221000096901630121416170BD0000002C01408A
:10222000004001400044014010B501F01F030121AE
:10223000046A99408C430462016A9A401143016226
:1022400010BD10B5846842EA032224F47F440A4397
:102250002243826010BD826822F070020A4342F07D
:1022600007018160704710B5036A046A24F0010415
:102270000462846924F0F00444EA021423F00A02A0
:102280000A438461026210BD70B5046A24F001043F
:1022900004628469056A0E4EB04205D0B0F1804FE9
:1022A00002D00C4EB04203D124F00304144301E0E9
:1022B00044F001041A0724F0F00444EA126225F005
:1022C0000A0301F00A0119438261016270BD000036
:1022D000002C01400040014010B5036A23F01003B8
:1022E00003628369046A23F4704343EA023224F0F0
:1022F000A00343EA01118261016210BD30B5046A96
:1023000024F0100404628469056A24F4407444EAE9
:10231000022222F470444FF6FF7202EA0332224393
:10232000A02425F0A00304EA01111943826101628F
:1023300030BD90F82410C90706D001684A68836A46
:1023400022F400321A434A6090F82410890706D517
:1023500001684A68C36A22F480321A434A6090F8DE
:102360002410490706D501684A68036B22F48022CD
:102370001A434A6090F82410090706D501684A6894
:10238000436B22F400421A434A6090F82410C906B5
:1023900006D501688A68836B22F480521A438A60EA
:1023A00090F82410890606D501688A68C36B22F468
:1023B00000521A438A6090F82410490611D501682A
:1023C0004A68036C22F480121A434A60016CB1F52A
:1023D000801F06D101684A68436C22F4C0021A4388
:1023E0004A6090F82410090606D501684A68806C96
:1023F00022F4002202434A607047F8B500260446E2
:10240000C0F88060FEF72AFA0546206800686FF081
:102410007E47000708D52B4600224FF400112046C6
:10242000009700F007F960B92068006840070AD5F6
:102430002B4600224FF480012046009700F0FAF866
:1024400008B10320F8BD2020A067E067266684F865
:1024500074600020F8BD00002DE9F04104460168D9
:1024600080682269E669104362690025324310439F
:10247000694B0A68694E324002430A60206841682D
:10248000E26821F44051114341602168A0699942FA
:1024900001D0226A10438A6822F4306202438A60C3
:1024A0005F4927685F488F420DD1D0F8880010F04F
:1024B000030006D0012838D0022834D0032821D1C7
:1024C00035E001211FE058498F420BD1D0F8880038
:1024D00010F00C0025D0042827D0082823D00C2881
:1024E00010D124E09F420DD1D0F8880010F4406054
:1024F00017D0B0F5806F18D0B0F5006F13D0B0F5DD
:10250000406F14D01021494A00264FF400409F42EA
:102510002FD171B102290FD004290FD0082973D10E
:102520000FE00021EFE70221EDE70421EBE70821AE
:10253000E9E7FEF75DFC03E0104602E0FEF77CFCF5
:10254000F0B3626802EB420181425DD8B0EB023F1A
:102550005AD8010E03025008181871410023FDF7E4
:1025600089FE334AA0F5407191424DD82168C86078
:102570004BE0E3694FF6EF77834228D1092943D234
:10258000DFE801F005080B420D4242421000FEF761
:102590002FFC06E0FEF73EFC03E0104602E0FEF7EB
:1025A0004BFC68B14100606801EB5001B1FBF0F0F9
:1025B000A0F11001B94227D84FF6F071014000E0B8
:1025C00023E0C0F3420001432068C1601DE00929F7
:1025D0001AD2DFE801F005080B190D1919191000BE
:1025E000FEF706FC06E0FEF715FC03E0104602E0ED
:1025F000FEF722FC48B1616800EB5100B0FBF1F03E
:10260000A0F11001B94205D9012566662846A666E3
:10261000BDE8F08180B2A9E700800040F369FFEFD8
:102620000038014000100240004400400024F40043
:10263000FFFC0F002DE9F0479A4617460E46044668
:102640004FF000094FF02008089D4AE0681C48D070
:10265000FEF704F9A0EB0A00A8422AD84DB320687F
:10266000016849073DD5C069C043000539D42168D8
:102670004FF400600862206850E8001F21F4D07118
:1026800040E80012002AF6D12068083050E8001F08
:1026900021F0010140E80012002AF5D1C4F8788049
:1026A000C4F87C80C4F8808084F874900320BDE86E
:1026B000F087216851E8000F20F4D07041E8000253
:1026C000002AF6D12068083050E8001F21F00101EF
:1026D00040E80012002AF5D1C4F87880C4F87C8064
:1026E000E2E72068C06936EA000004D00020B84262
:1026F000ACD00020DBE70120F9E7FEE70907090E6F
:10270000002804DB00F1E02080F80014704700F09E
:102710000F0000F1E02080F8141D7047FEF7ACF8C0
:10272000FFF766FCFFF7D6FAFFF71CFBFFF768FB25
:102730001348FEF73DFF4FF480664FF090450022AE
:1027400031462846FEF785F80D4C00274FF47A787D
:10275000012231462846FEF77CF82068476220684F
:10276000416A0A29FCD1002231462846FEF771F859
:1027700000210348FFF776F84046FDF757FFE7E7EB
:1027800020000020491058BFC1F140415B1058BFE4
:10279000C3F140438B42EFF30080704710F00042DA
:1027A00048BF4042B0FA80F310FA03F10AD0C3F1F7
:1027B0001D0303F580634FEA415002EB035202EB25
:1027C000D12170474FF000007047000051EA030C20
:1027D00017D41CF5801F58BFBCF5801F00F1068080
:1027E000994218BF704708BF9042704707D711F54C
:1027F000801F58BF13F5801F19D499427047894232
:1028000070471CF5801F08D5BCF5801FF7D58B429B
:1028100018BF704708BF824270474FF4001C1CEB82
:10282000410F38BF1CEB430F01D28B42704770B58C
:1028300000F008F8922449004FF000514FF0805307
:10284000FFF7A0BF0EF1020E2EF0030E5EF8046B30
:10285000364205D4012A43EB030515F5001F12D8B3
:10286000012841EB010C1CF5001F0CD80ED14FEADA
:10287000D17C15F5001F0CEB4C0C0CF1020C08BFC1
:102880004CEBD37C04E04FF0080C01E04FEAD37C22
:102890000CEB4C0526FA05F606F00706B6F1040C1B
:1028A00006D20EEB860CBDE870404CF0010C604780
:1028B000DFE80CF0090B02024FF000414FF000007E
:1028C000A1F5002170BD19461046012851EB010405
:1028D00018BFD4F5001484BF002001F0004170BD82
:1028E00053EA010C17D41CF5801F58BFBCF5801F9C
:1028F00000F106808B4218BF704708BF82427047C4
:1029000007D713F5801F58BF11F5801F19D48B42CC
:1029100070479B4270471CF5801F08D5BCF5801F8F
:10292000F7D5994218BF704708BF904270474FF4DF
:10293000001C1CEB430F38BF1CEB410F01D2994226
:1029400070470FB40CBC03BCFFF771BF4FF0407071
:10295000E1EE100A704700000000000000000000D7
:102960000102030406070809A0860100400D0300C8
:10297000801A060000350C0040420F0080841E00C3
:1029800000093D0000127A000024F40000366E01B8
:102990000048E801006CDC020000000001020304B2
:1029A000C02900080000002020000000C801000825
:1029B000E02900082000002068070000E40100086A
:1029C0000100000000000000000000000000000006
:1029D00001000000100000000000000000093D00A0
:040000050800018D61
:00000001FF
